{
  "_format": "hh3-artifact-1",
  "contractName": "StableCoinVault",
  "sourceName": "contracts/StableCoinVault.sol",
  "abi": [
    {
      "inputs": [
        {
          "internalType": "address",
          "name": "_stableCoin",
          "type": "address"
        },
        {
          "internalType": "address",
          "name": "_collateralToken",
          "type": "address"
        }
      ],
      "stateMutability": "nonpayable",
      "type": "constructor"
    },
    {
      "inputs": [],
      "name": "collateralToken",
      "outputs": [
        {
          "internalType": "contract IERC20",
          "name": "",
          "type": "address"
        }
      ],
      "stateMutability": "view",
      "type": "function"
    },
    {
      "inputs": [],
      "name": "collateralization",
      "outputs": [
        {
          "internalType": "uint256",
          "name": "",
          "type": "uint256"
        }
      ],
      "stateMutability": "view",
      "type": "function"
    },
    {
      "inputs": [
        {
          "internalType": "address",
          "name": "",
          "type": "address"
        }
      ],
      "name": "depositedCollateral",
      "outputs": [
        {
          "internalType": "uint256",
          "name": "",
          "type": "uint256"
        }
      ],
      "stateMutability": "view",
      "type": "function"
    },
    {
      "inputs": [
        {
          "internalType": "uint256",
          "name": "collateralAmount",
          "type": "uint256"
        }
      ],
      "name": "mintStable",
      "outputs": [],
      "stateMutability": "nonpayable",
      "type": "function"
    },
    {
      "inputs": [
        {
          "internalType": "uint256",
          "name": "tokenAmount",
          "type": "uint256"
        }
      ],
      "name": "redeemStable",
      "outputs": [],
      "stateMutability": "nonpayable",
      "type": "function"
    },
    {
      "inputs": [],
      "name": "stableCoin",
      "outputs": [
        {
          "internalType": "contract MyStableCoin",
          "name": "",
          "type": "address"
        }
      ],
      "stateMutability": "view",
      "type": "function"
    }
  ],
  "bytecode": "0x60806040526096600255348015610014575f5ffd5b506040516105d63803806105d6833981016040819052610033916100cb565b5f80546001600160a01b038481166001600160a01b031992831681179093556001805491851691909216179055604051636817031b60e01b8152306004820152636817031b906024015f604051808303815f87803b158015610093575f5ffd5b505af11580156100a5573d5f5f3e3d5ffd5b5050505050506100fc565b80516001600160a01b03811681146100c6575f5ffd5b919050565b5f5f604083850312156100dc575f5ffd5b6100e5836100b0565b91506100f3602084016100b0565b90509250929050565b6104cd806101095f395ff3fe608060405234801561000f575f5ffd5b5060043610610060575f3560e01c8063992642e514610064578063b2016bd414610093578063be34c5b9146100a6578063d38c7fe6146100d3578063d5571f02146100e8578063d91d2f60146100fb575b5f5ffd5b5f54610076906001600160a01b031681565b6040516001600160a01b0390911681526020015b60405180910390f35b600154610076906001600160a01b031681565b6100c56100b43660046103be565b60036020525f908152604090205481565b60405190815260200161008a565b6100e66100e13660046103eb565b610104565b005b6100e66100f63660046103eb565b61026c565b6100c560025481565b6002545f9061011683620f4240610416565b6101209190610433565b61012b906064610416565b6001546040516323b872dd60e01b8152336004820152306024820152604481018590529192506001600160a01b0316906323b872dd906064016020604051808303815f875af1158015610180573d5f5f3e3d5ffd5b505050506040513d601f19601f820116820180604052508101906101a49190610452565b6101e75760405162461bcd60e51b815260206004820152600f60248201526e151c985b9cd9995c8819985a5b1959608a1b60448201526064015b60405180910390fd5b335f9081526003602052604081208054849290610205908490610471565b90915550505f546040516340c10f1960e01b8152336004820152602481018390526001600160a01b03909116906340c10f19906044015f604051808303815f87803b158015610252575f5ffd5b505af1158015610264573d5f5f3e3d5ffd5b505050505050565b5f60646002548361027d9190610416565b6102879190610433565b5f54604051630e41dd2560e11b8152336004820152602481018590529192506001600160a01b031690631c83ba4a906044015f604051808303815f87803b1580156102d0575f5ffd5b505af11580156102e2573d5f5f3e3d5ffd5b5050335f9081526003602052604081208054859450909250610305908490610484565b909155505060015460405163a9059cbb60e01b8152336004820152602481018390526001600160a01b039091169063a9059cbb906044016020604051808303815f875af1158015610358573d5f5f3e3d5ffd5b505050506040513d601f19601f8201168201806040525081019061037c9190610452565b6103ba5760405162461bcd60e51b815260206004820152600f60248201526e151c985b9cd9995c8819985a5b1959608a1b60448201526064016101de565b5050565b5f602082840312156103ce575f5ffd5b81356001600160a01b03811681146103e4575f5ffd5b9392505050565b5f602082840312156103fb575f5ffd5b5035919050565b634e487b7160e01b5f52601160045260245ffd5b808202811582820484141761042d5761042d610402565b92915050565b5f8261044d57634e487b7160e01b5f52601260045260245ffd5b500490565b5f60208284031215610462575f5ffd5b815180151581146103e4575f5ffd5b8082018082111561042d5761042d610402565b8181038181111561042d5761042d61040256fea2646970667358221220ffe3678c45b8aa5c1e6ae6c31ee670e7e616054c36393d70e93f24479b885ff064736f6c634300081c0033",
  "linkReferences": {},
  "deployedLinkReferences": {},
  "immutableReferences": {},
  "inputSourceName": "project/contracts/StableCoinVault.sol",
  "buildInfoId": "solc-0_8_28-5a3c05889c38836ac69812eb465e4b5aa10e1b67"
}