{
  "_format": "hh3-artifact-1",
  "contractName": "MyStableCoin",
  "sourceName": "contracts/MyStableCoin.sol",
  "abi": [
    {
      "inputs": [],
      "stateMutability": "nonpayable",
      "type": "constructor"
    },
    {
      "inputs": [
        {
          "internalType": "address",
          "name": "spender",
          "type": "address"
        },
        {
          "internalType": "uint256",
          "name": "allowance",
          "type": "uint256"
        },
        {
          "internalType": "uint256",
          "name": "needed",
          "type": "uint256"
        }
      ],
      "name": "ERC20InsufficientAllowance",
      "type": "error"
    },
    {
      "inputs": [
        {
          "internalType": "address",
          "name": "sender",
          "type": "address"
        },
        {
          "internalType": "uint256",
          "name": "balance",
          "type": "uint256"
        },
        {
          "internalType": "uint256",
          "name": "needed",
          "type": "uint256"
        }
      ],
      "name": "ERC20InsufficientBalance",
      "type": "error"
    },
    {
      "inputs": [
        {
          "internalType": "address",
          "name": "approver",
          "type": "address"
        }
      ],
      "name": "ERC20InvalidApprover",
      "type": "error"
    },
    {
      "inputs": [
        {
          "internalType": "address",
          "name": "receiver",
          "type": "address"
        }
      ],
      "name": "ERC20InvalidReceiver",
      "type": "error"
    },
    {
      "inputs": [
        {
          "internalType": "address",
          "name": "sender",
          "type": "address"
        }
      ],
      "name": "ERC20InvalidSender",
      "type": "error"
    },
    {
      "inputs": [
        {
          "internalType": "address",
          "name": "spender",
          "type": "address"
        }
      ],
      "name": "ERC20InvalidSpender",
      "type": "error"
    },
    {
      "anonymous": false,
      "inputs": [
        {
          "indexed": true,
          "internalType": "address",
          "name": "owner",
          "type": "address"
        },
        {
          "indexed": true,
          "internalType": "address",
          "name": "spender",
          "type": "address"
        },
        {
          "indexed": false,
          "internalType": "uint256",
          "name": "value",
          "type": "uint256"
        }
      ],
      "name": "Approval",
      "type": "event"
    },
    {
      "anonymous": false,
      "inputs": [
        {
          "indexed": true,
          "internalType": "address",
          "name": "from",
          "type": "address"
        },
        {
          "indexed": true,
          "internalType": "address",
          "name": "to",
          "type": "address"
        },
        {
          "indexed": false,
          "internalType": "uint256",
          "name": "value",
          "type": "uint256"
        }
      ],
      "name": "Transfer",
      "type": "event"
    },
    {
      "inputs": [
        {
          "internalType": "address",
          "name": "owner",
          "type": "address"
        },
        {
          "internalType": "address",
          "name": "spender",
          "type": "address"
        }
      ],
      "name": "allowance",
      "outputs": [
        {
          "internalType": "uint256",
          "name": "",
          "type": "uint256"
        }
      ],
      "stateMutability": "view",
      "type": "function"
    },
    {
      "inputs": [
        {
          "internalType": "address",
          "name": "spender",
          "type": "address"
        },
        {
          "internalType": "uint256",
          "name": "value",
          "type": "uint256"
        }
      ],
      "name": "approve",
      "outputs": [
        {
          "internalType": "bool",
          "name": "",
          "type": "bool"
        }
      ],
      "stateMutability": "nonpayable",
      "type": "function"
    },
    {
      "inputs": [
        {
          "internalType": "address",
          "name": "account",
          "type": "address"
        }
      ],
      "name": "balanceOf",
      "outputs": [
        {
          "internalType": "uint256",
          "name": "",
          "type": "uint256"
        }
      ],
      "stateMutability": "view",
      "type": "function"
    },
    {
      "inputs": [
        {
          "internalType": "uint256",
          "name": "value",
          "type": "uint256"
        }
      ],
      "name": "burn",
      "outputs": [],
      "stateMutability": "nonpayable",
      "type": "function"
    },
    {
      "inputs": [
        {
          "internalType": "address",
          "name": "account",
          "type": "address"
        },
        {
          "internalType": "uint256",
          "name": "value",
          "type": "uint256"
        }
      ],
      "name": "burnFrom",
      "outputs": [],
      "stateMutability": "nonpayable",
      "type": "function"
    },
    {
      "inputs": [
        {
          "internalType": "address",
          "name": "from",
          "type": "address"
        },
        {
          "internalType": "uint256",
          "name": "amount",
          "type": "uint256"
        }
      ],
      "name": "burnFromVault",
      "outputs": [],
      "stateMutability": "nonpayable",
      "type": "function"
    },
    {
      "inputs": [],
      "name": "decimals",
      "outputs": [
        {
          "internalType": "uint8",
          "name": "",
          "type": "uint8"
        }
      ],
      "stateMutability": "pure",
      "type": "function"
    },
    {
      "inputs": [
        {
          "internalType": "address",
          "name": "to",
          "type": "address"
        },
        {
          "internalType": "uint256",
          "name": "amount",
          "type": "uint256"
        }
      ],
      "name": "mint",
      "outputs": [],
      "stateMutability": "nonpayable",
      "type": "function"
    },
    {
      "inputs": [],
      "name": "name",
      "outputs": [
        {
          "internalType": "string",
          "name": "",
          "type": "string"
        }
      ],
      "stateMutability": "view",
      "type": "function"
    },
    {
      "inputs": [
        {
          "internalType": "address",
          "name": "_vault",
          "type": "address"
        }
      ],
      "name": "setVault",
      "outputs": [],
      "stateMutability": "nonpayable",
      "type": "function"
    },
    {
      "inputs": [],
      "name": "symbol",
      "outputs": [
        {
          "internalType": "string",
          "name": "",
          "type": "string"
        }
      ],
      "stateMutability": "view",
      "type": "function"
    },
    {
      "inputs": [],
      "name": "totalSupply",
      "outputs": [
        {
          "internalType": "uint256",
          "name": "",
          "type": "uint256"
        }
      ],
      "stateMutability": "view",
      "type": "function"
    },
    {
      "inputs": [
        {
          "internalType": "address",
          "name": "to",
          "type": "address"
        },
        {
          "internalType": "uint256",
          "name": "value",
          "type": "uint256"
        }
      ],
      "name": "transfer",
      "outputs": [
        {
          "internalType": "bool",
          "name": "",
          "type": "bool"
        }
      ],
      "stateMutability": "nonpayable",
      "type": "function"
    },
    {
      "inputs": [
        {
          "internalType": "address",
          "name": "from",
          "type": "address"
        },
        {
          "internalType": "address",
          "name": "to",
          "type": "address"
        },
        {
          "internalType": "uint256",
          "name": "value",
          "type": "uint256"
        }
      ],
      "name": "transferFrom",
      "outputs": [
        {
          "internalType": "bool",
          "name": "",
          "type": "bool"
        }
      ],
      "stateMutability": "nonpayable",
      "type": "function"
    },
    {
      "inputs": [],
      "name": "vault",
      "outputs": [
        {
          "internalType": "address",
          "name": "",
          "type": "address"
        }
      ],
      "stateMutability": "view",
      "type": "function"
    }
  ],
  "bytecode": "0x608060405234801561000f575f5ffd5b506040518060400160405280600781526020016648554e424f4c4960c81b815250604051806040016040528060048152602001630849e84960e31b815250816003908161005c9190610109565b5060046100698282610109565b5050506101c3565b634e487b7160e01b5f52604160045260245ffd5b600181811c9082168061009957607f821691505b6020821081036100b757634e487b7160e01b5f52602260045260245ffd5b50919050565b601f82111561010457805f5260205f20601f840160051c810160208510156100e25750805b601f840160051c820191505b81811015610101575f81556001016100ee565b50505b505050565b81516001600160401b0381111561012257610122610071565b610136816101308454610085565b846100bd565b6020601f821160018114610168575f83156101515750848201515b5f19600385901b1c1916600184901b178455610101565b5f84815260208120601f198516915b828110156101975787850151825560209485019460019092019101610177565b50848210156101b457868401515f19600387901b60f8161c191681555b50505050600190811b01905550565b61098e806101d05f395ff3fe608060405234801561000f575f5ffd5b50600436106100f0575f3560e01c806342966c681161009357806395d89b411161006357806395d89b41146101f2578063a9059cbb146101fa578063dd62ed3e1461020d578063fbfa77cf14610245575f5ffd5b806342966c68146101915780636817031b146101a457806370a08231146101b757806379cc6790146101df575f5ffd5b80631c83ba4a116100ce5780631c83ba4a1461014757806323b872dd1461015c578063313ce5671461016f57806340c10f191461017e575f5ffd5b806306fdde03146100f4578063095ea7b31461011257806318160ddd14610135575b5f5ffd5b6100fc610270565b60405161010991906107e7565b60405180910390f35b610125610120366004610837565b610300565b6040519015158152602001610109565b6002545b604051908152602001610109565b61015a610155366004610837565b610319565b005b61012561016a36600461085f565b61037c565b60405160068152602001610109565b61015a61018c366004610837565b61039f565b61015a61019f366004610899565b6103f9565b61015a6101b23660046108b0565b610406565b6101396101c53660046108b0565b6001600160a01b03165f9081526020819052604090205490565b61015a6101ed366004610837565b610475565b6100fc610480565b610125610208366004610837565b61048f565b61013961021b3660046108d0565b6001600160a01b039182165f90815260016020908152604080832093909416825291909152205490565b600554610258906001600160a01b031681565b6040516001600160a01b039091168152602001610109565b60606003805461027f90610901565b80601f01602080910402602001604051908101604052809291908181526020018280546102ab90610901565b80156102f65780601f106102cd576101008083540402835291602001916102f6565b820191905f5260205f20905b8154815290600101906020018083116102d957829003601f168201915b5050505050905090565b5f3361030d81858561049c565b60019150505b92915050565b6005546001600160a01b0316331461036e5760405162461bcd60e51b815260206004820152601360248201527227b7363c903b30bab63a1031b0b710313ab93760691b60448201526064015b60405180910390fd5b61037882826104ae565b5050565b5f336103898582856104e2565b61039485858561055e565b506001949350505050565b6005546001600160a01b031633146103ef5760405162461bcd60e51b815260206004820152601360248201527213db9b1e481d985d5b1d0818d85b881b5a5b9d606a1b6044820152606401610365565b61037882826105bb565b61040333826104ae565b50565b6005546001600160a01b0316156104535760405162461bcd60e51b815260206004820152601160248201527015985d5b1d08185b1c9958591e481cd95d607a1b6044820152606401610365565b600580546001600160a01b0319166001600160a01b0392909216919091179055565b61036e8233836104e2565b60606004805461027f90610901565b5f3361030d81858561055e565b6104a983838360016105ef565b505050565b6001600160a01b0382166104d757604051634b637e8f60e11b81525f6004820152602401610365565b610378825f836106c1565b6001600160a01b038381165f908152600160209081526040808320938616835292905220545f19811015610558578181101561054a57604051637dc7a0d960e11b81526001600160a01b03841660048201526024810182905260448101839052606401610365565b61055884848484035f6105ef565b50505050565b6001600160a01b03831661058757604051634b637e8f60e11b81525f6004820152602401610365565b6001600160a01b0382166105b05760405163ec442f0560e01b81525f6004820152602401610365565b6104a98383836106c1565b6001600160a01b0382166105e45760405163ec442f0560e01b81525f6004820152602401610365565b6103785f83836106c1565b6001600160a01b0384166106185760405163e602df0560e01b81525f6004820152602401610365565b6001600160a01b03831661064157604051634a1406b160e11b81525f6004820152602401610365565b6001600160a01b038085165f908152600160209081526040808320938716835292905220829055801561055857826001600160a01b0316846001600160a01b03167f8c5be1e5ebec7d5bd14f71427d1e84f3dd0314c0f7b2291e5b200ac8c7c3b925846040516106b391815260200190565b60405180910390a350505050565b6001600160a01b0383166106eb578060025f8282546106e09190610939565b9091555061075b9050565b6001600160a01b0383165f908152602081905260409020548181101561073d5760405163391434e360e21b81526001600160a01b03851660048201526024810182905260448101839052606401610365565b6001600160a01b0384165f9081526020819052604090209082900390555b6001600160a01b03821661077757600280548290039055610795565b6001600160a01b0382165f9081526020819052604090208054820190555b816001600160a01b0316836001600160a01b03167fddf252ad1be2c89b69c2b068fc378daa952ba7f163c4a11628f55a4df523b3ef836040516107da91815260200190565b60405180910390a3505050565b602081525f82518060208401528060208501604085015e5f604082850101526040601f19601f83011684010191505092915050565b80356001600160a01b0381168114610832575f5ffd5b919050565b5f5f60408385031215610848575f5ffd5b6108518361081c565b946020939093013593505050565b5f5f5f60608486031215610871575f5ffd5b61087a8461081c565b92506108886020850161081c565b929592945050506040919091013590565b5f602082840312156108a9575f5ffd5b5035919050565b5f602082840312156108c0575f5ffd5b6108c98261081c565b9392505050565b5f5f604083850312156108e1575f5ffd5b6108ea8361081c565b91506108f86020840161081c565b90509250929050565b600181811c9082168061091557607f821691505b60208210810361093357634e487b7160e01b5f52602260045260245ffd5b50919050565b8082018082111561031357634e487b7160e01b5f52601160045260245ffdfea26469706673582212209e87ac56e7f6e389b3bf1d1e5889e585cdfdaf9b2b79c718b3e9de71cf19c73164736f6c634300081c0033",
  "linkReferences": {},
  "deployedLinkReferences": {},
  "immutableReferences": {},
  "inputSourceName": "project/contracts/MyStableCoin.sol",
  "buildInfoId": "solc-0_8_28-0cd71ef00276296f38e0d4d01b468344ea14b536"
}